:100000000C943A000C9400000C9400000C94000036
:100010000C9400000C9400000C9400000C94000060
:100020000C9400000C9400000C9400000C94000050
:100030000C9400000C9400000C9400000C94000040
:100040000C9400000C9400000C9400000C94000030
:100050000C9400001027E80364000A00010000105F
:100060000001100001002563000080C00200600153
:100070006A000000F894EE27ECBBF1E0FBBFEBBF99
:10008000E5BF8DE0A2E0BB27ED938A95E9F780E01C
:1000900094E0A0E6ED930197E9F7ECE6F0E08591B6
:1000A0009591009761F0A591B59105901590BF01CC
:1000B000F00105900D920197E1F7FB01F0CFEFE51C
:1000C000EDBFE4E0EEBFC0E6D1E00C94670000E0D5
:1000D00010E01AD020D03E2FE0E2F0E0E017F10768
:1000E00019F400E010E0A9D0E6E6F0E0FA93EA9314
:1000F000E32FFF27662777279CD284E01CD2269621
:100100000F5F1F4FE7CFFFCFE7E0E7BBE8EFE8BBAC
:10011000A0E1B0D00895C098C19AC29AE6B3E63F74
:1001200029F4B39BFECFE1E3089514C0EE3E29F419
:10013000B49BFECFE4E308950DC0EE3D29F4B59BDA
:10014000FECFE7E3089506C0EE3B21F4B69BFECF59
:10015000EAE20895C09AC198C29AE6B3E53F29F44D
:10016000B39BFECFE2E3089514C0ED3E29F4B49BA7
:10017000FECFE5E308950DC0ED3D29F4B59BFECF1C
:10018000E8E3089506C0ED3B21F4B69BFECFE0E323
:100190000895C09AC19AC298E6B3E33F29F4B39B8D
:1001A000FECFE3E3089514C0EB3E29F4B49BFECFE9
:1001B000E6E308950DC0EB3D29F4B59BFECFE9E3DE
:1001C000089506C0EB3B21F4B69BFECFE3E2089511
:1001D000A2CF1A931A2FEBB3EF70AE2FE12FE07F6F
:1001E000EA2BEBBB8DE08A95F1F7DA9A8DE08A95E0
:1001F000F1F7DA988DE08A95F1F765C0AA93A881A6
:10020000E8DFE881E295E883A881E3DF85E88A9565
:10021000F1F7219608951A930A931A2F0A81E12F74
:10022000F0E0E05AFE4FE081E00FAE2FE7DF502E06
:10023000412E1981088123960895A2E0BCD1ACE03B
:10024000DDDFA1E0B8D1E0E04E2E5E2E08951A93D6
:100250001A2F1A3011F0571438F0E0E0EA93439463
:10026000A42DD9DF1A3079F15394D89AA12FC6DF83
:10027000D89829C01A931A2FEAB3E06FEABBD29A32
:10028000D09AD19ADA98D898D998712EE12FE0585F
:10029000E0936201E12FE054E0936301A4E1B0E058
:1002A000CDD18DD18CD18BD1A0E293DF88EC90E0C1
:1002B0000197F1F7A8E2A2DFA4E0A0DFA5E89EDFA6
:1002C000A6E09CDFBADF19910895BA93AA93269706
:1002D0009AD110E0AC85BD85E0E0F0E0ED93FC93B1
:1002E000EA89FB893196EA8BFB8B3197E4912E2FBB
:1002F000E03009F40BC1E12FE03031F4253211F484
:1003000011E001C063D101C1E130A1F4253211F443
:100310005DD1FAC012E040E000E02D3211F401E0BE
:10032000F4C02B3211F44BE2F0C0203211F440E261
:10033000ECC002C0E23039F450E013E0203311F495
:100340000068E3C003C0E33009F0DFC0203310F0E1
:100350002A3308F007C0AAE05A9F502DE22FE0533D
:100360005E0FD3C0E22FE33639F437D1E889F9893B
:10037000A481AA9338D1C8C0E33729F42ED139D14A
:1003800001D11E2F07C0E03749F427D132D106D161
:100390001E2F086002600F7730E03AC0E43611F09B
:1003A000E93611F4046002C0E53731F4E4E5F0E029
:1003B000EE83FF8315E00CC0E83511F4086003C03C
:1003C000E83709F0A1C0EEE5F0E0EE83FF8314E02A
:1003D00002FF15C002D1A889B9891496ED91FD914B
:1003E000EA87FB87AB85AA2322F41BD1EA87FB8728
:1003F0004DE2403011F01F5F01C00B7F09C0EDD00E
:10040000A889B9891496ED91FC911197EA87FB8729
:1004100000FD10C0151770F407FF08C002FF04C0EC
:100420000B7F242F115001C020E301C020E2CED069
:100430005150F0CF312F01FF16C0303099F003FF3B
:1004400006C0EE81FF812591EE83FF8305C0AE815A
:10045000BF812D91AE83BF83B9D0503009F0515088
:100460003150EBCF48C020E3EE81FF81DED0E8873A
:10047000F987EE81FF813296EE83FF83E885F98567
:10048000AA85BB85AE17BF0750F02F5FA885B98539
:10049000EA85FB85EA1BFB0BEA87FB87EFCF2A3354
:1004A00028F003FF02C0295F01C0295D04FD19C0C7
:1004B000213320F4A885B985119709F409C0531791
:1004C00010F000FF01C011C020E207FF0AC020E3C6
:1004D000006102FF06C00B7F4A9385D0503009F0BF
:1004E000515074D0503009F051503150A885B98521
:1004F000129708F0B8CF00FF07C0503029F05150D4
:10050000E0E2EA9370D0F9CF10E0EACEAC85BD8589
:10051000ED91FD917FD06496089577D08D013C8157
:10052000A32F95DED801ED91FD913196FE93EE93C8
:1005300073D025960895FF92F82E26971A930A9362
:10054000DE0114960024AF0DB01D8D01E0E0EC83B8
:10055000ED83EE83EF83DE0118960024AF0DB01D0E
:10056000ED91FD91FA93EA931A930A93EDE8F2E084
:10057000FA93EA93DE011896A8DE1981088128967D
:10058000FF900895BA93AA93A991B991EE27FF27F6
:100590006D91662311F03196FBCF0895BA93AA931B
:1005A000AA27BB27E991F9910590002011F0119637
:1005B000FBCFFD01089522DEA3E0B0E03FC0A0E341
:1005C00008DE88EC90E00197F1F708952A93AD8555
:1005D000BE85EF85F88909950895E889F9893497EA
:1005E000E88BF98B0895AD85BE85EF85F88909956F
:1005F0000895A889B9891496ED91FD91EE83FF8342
:10060000AE81BF8108955A934A933A932A931A93DD
:100610000A9308955D814C813B812A81198108816B
:100620000895F195E195F04008950590F491E02D3D
:1006300008957A936A93FA93EA930895109639F09D
:10064000A89580ED97E00197F1F71197C9F7089504
:00000001FF
